{
  "contractName": "tokens",
  "abi": [
    {
      "inputs": [],
      "stateMutability": "nonpayable",
      "type": "constructor"
    },
    {
      "anonymous": false,
      "inputs": [
        {
          "indexed": true,
          "internalType": "address",
          "name": "owner",
          "type": "address"
        },
        {
          "indexed": true,
          "internalType": "address",
          "name": "spender",
          "type": "address"
        },
        {
          "indexed": false,
          "internalType": "uint256",
          "name": "value",
          "type": "uint256"
        }
      ],
      "name": "Approval",
      "type": "event"
    },
    {
      "anonymous": false,
      "inputs": [
        {
          "indexed": true,
          "internalType": "address",
          "name": "from",
          "type": "address"
        },
        {
          "indexed": true,
          "internalType": "address",
          "name": "to",
          "type": "address"
        },
        {
          "indexed": false,
          "internalType": "uint256",
          "name": "value",
          "type": "uint256"
        }
      ],
      "name": "Transfer",
      "type": "event"
    },
    {
      "inputs": [
        {
          "internalType": "address",
          "name": "",
          "type": "address"
        },
        {
          "internalType": "address",
          "name": "",
          "type": "address"
        }
      ],
      "name": "allowances",
      "outputs": [
        {
          "internalType": "uint256",
          "name": "",
          "type": "uint256"
        }
      ],
      "stateMutability": "view",
      "type": "function"
    },
    {
      "inputs": [
        {
          "internalType": "address",
          "name": "",
          "type": "address"
        }
      ],
      "name": "balances",
      "outputs": [
        {
          "internalType": "uint256",
          "name": "",
          "type": "uint256"
        }
      ],
      "stateMutability": "view",
      "type": "function"
    },
    {
      "inputs": [],
      "name": "decimals",
      "outputs": [
        {
          "internalType": "uint256",
          "name": "",
          "type": "uint256"
        }
      ],
      "stateMutability": "view",
      "type": "function"
    },
    {
      "inputs": [],
      "name": "owner",
      "outputs": [
        {
          "internalType": "string",
          "name": "",
          "type": "string"
        }
      ],
      "stateMutability": "view",
      "type": "function"
    },
    {
      "inputs": [],
      "name": "symbol",
      "outputs": [
        {
          "internalType": "string",
          "name": "",
          "type": "string"
        }
      ],
      "stateMutability": "view",
      "type": "function"
    },
    {
      "inputs": [],
      "name": "totalSupply",
      "outputs": [
        {
          "internalType": "uint256",
          "name": "",
          "type": "uint256"
        }
      ],
      "stateMutability": "view",
      "type": "function"
    },
    {
      "inputs": [
        {
          "internalType": "address",
          "name": "to",
          "type": "address"
        },
        {
          "internalType": "uint256",
          "name": "value",
          "type": "uint256"
        }
      ],
      "name": "transfer",
      "outputs": [
        {
          "internalType": "bool",
          "name": "success",
          "type": "bool"
        }
      ],
      "stateMutability": "nonpayable",
      "type": "function"
    },
    {
      "inputs": [
        {
          "internalType": "address",
          "name": "spender",
          "type": "address"
        },
        {
          "internalType": "uint256",
          "name": "value",
          "type": "uint256"
        }
      ],
      "name": "approve",
      "outputs": [
        {
          "internalType": "bool",
          "name": "success",
          "type": "bool"
        }
      ],
      "stateMutability": "nonpayable",
      "type": "function"
    },
    {
      "inputs": [
        {
          "internalType": "address",
          "name": "from",
          "type": "address"
        },
        {
          "internalType": "address",
          "name": "to",
          "type": "address"
        },
        {
          "internalType": "uint256",
          "name": "value",
          "type": "uint256"
        }
      ],
      "name": "transferFrom",
      "outputs": [
        {
          "internalType": "bool",
          "name": "success",
          "type": "bool"
        }
      ],
      "stateMutability": "nonpayable",
      "type": "function"
    }
  ],
  "bytecode": "0x60806040526040518060400160405280600a81526020017f5269636820546f6b656e00000000000000000000000000000000000000000000815250600090805190602001906200005192919062000123565b506040518060400160405280600481526020017f5249434800000000000000000000000000000000000000000000000000000000815250600190805190602001906200009f92919062000123565b506012600255600254600a620000b6919062000360565b620f4240620000c69190620003b1565b600355348015620000d657600080fd5b50600354600460003373ffffffffffffffffffffffffffffffffffffffff1673ffffffffffffffffffffffffffffffffffffffff1681526020019081526020016000208190555062000476565b828054620001319062000441565b90600052602060002090601f016020900481019282620001555760008555620001a1565b82601f106200017057805160ff1916838001178555620001a1565b82800160010185558215620001a1579182015b82811115620001a057825182559160200191906001019062000183565b5b509050620001b09190620001b4565b5090565b5b80821115620001cf576000816000905550600101620001b5565b5090565b7f4e487b7100000000000000000000000000000000000000000000000000000000600052601160045260246000fd5b60008160011c9050919050565b6000808291508390505b60018511156200026157808604811115620002395762000238620001d3565b5b6001851615620002495780820291505b8081029050620002598562000202565b945062000219565b94509492505050565b6000826200027c57600190506200034f565b816200028c57600090506200034f565b8160018114620002a55760028114620002b057620002e6565b60019150506200034f565b60ff841115620002c557620002c4620001d3565b5b8360020a915084821115620002df57620002de620001d3565b5b506200034f565b5060208310610133831016604e8410600b8410161715620003205782820a9050838111156200031a5762000319620001d3565b5b6200034f565b6200032f84848460016200020f565b92509050818404811115620003495762000348620001d3565b5b81810290505b9392505050565b6000819050919050565b60006200036d8262000356565b91506200037a8362000356565b9250620003a97fffffffffffffffffffffffffffffffffffffffffffffffffffffffffffffffff84846200026a565b905092915050565b6000620003be8262000356565b9150620003cb8362000356565b9250817fffffffffffffffffffffffffffffffffffffffffffffffffffffffffffffffff0483118215151615620004075762000406620001d3565b5b828202905092915050565b7f4e487b7100000000000000000000000000000000000000000000000000000000600052602260045260246000fd5b600060028204905060018216806200045a57607f821691505b60208210810362000470576200046f62000412565b5b50919050565b610bc480620004866000396000f3fe608060405234801561001057600080fd5b50600436106100935760003560e01c8063313ce56711610066578063313ce5671461014657806355b6ed5c146101645780638da5cb5b1461019457806395d89b41146101b2578063a9059cbb146101d057610093565b8063095ea7b31461009857806318160ddd146100c857806323b872dd146100e657806327e235e314610116575b600080fd5b6100b260048036038101906100ad919061085a565b610200565b6040516100bf91906108b5565b60405180910390f35b6100d061032a565b6040516100dd91906108df565b60405180910390f35b61010060048036038101906100fb91906108fa565b610330565b60405161010d91906108b5565b60405180910390f35b610130600480360381019061012b919061094d565b6104b0565b60405161013d91906108df565b60405180910390f35b61014e6104c8565b60405161015b91906108df565b60405180910390f35b61017e6004803603810190610179919061097a565b6104ce565b60405161018b91906108df565b60405180910390f35b61019c6104f3565b6040516101a99190610a53565b60405180910390f35b6101ba610581565b6040516101c79190610a53565b60405180910390f35b6101ea60048036038101906101e5919061085a565b61060f565b6040516101f791906108b5565b60405180910390f35b60008073ffffffffffffffffffffffffffffffffffffffff168373ffffffffffffffffffffffffffffffffffffffff160361023a57600080fd5b81600560003373ffffffffffffffffffffffffffffffffffffffff1673ffffffffffffffffffffffffffffffffffffffff16815260200190815260200160002060008573ffffffffffffffffffffffffffffffffffffffff1673ffffffffffffffffffffffffffffffffffffffff168152602001908152602001600020819055508273ffffffffffffffffffffffffffffffffffffffff163373ffffffffffffffffffffffffffffffffffffffff167f8c5be1e5ebec7d5bd14f71427d1e84f3dd0314c0f7b2291e5b200ac8c7c3b9258460405161031891906108df565b60405180910390a36001905092915050565b60035481565b6000600460008573ffffffffffffffffffffffffffffffffffffffff1673ffffffffffffffffffffffffffffffffffffffff1681526020019081526020016000205482111561037e57600080fd5b600560008573ffffffffffffffffffffffffffffffffffffffff1673ffffffffffffffffffffffffffffffffffffffff16815260200190815260200160002060003373ffffffffffffffffffffffffffffffffffffffff1673ffffffffffffffffffffffffffffffffffffffff1681526020019081526020016000205482111561040757600080fd5b81600560008673ffffffffffffffffffffffffffffffffffffffff1673ffffffffffffffffffffffffffffffffffffffff16815260200190815260200160002060003373ffffffffffffffffffffffffffffffffffffffff1673ffffffffffffffffffffffffffffffffffffffff16815260200190815260200160002060008282546104939190610aa4565b925050819055506104a5848484610672565b600190509392505050565b60046020528060005260406000206000915090505481565b60025481565b6005602052816000526040600020602052806000526040600020600091509150505481565b6000805461050090610b07565b80601f016020809104026020016040519081016040528092919081815260200182805461052c90610b07565b80156105795780601f1061054e57610100808354040283529160200191610579565b820191906000526020600020905b81548152906001019060200180831161055c57829003601f168201915b505050505081565b6001805461058e90610b07565b80601f01602080910402602001604051908101604052809291908181526020018280546105ba90610b07565b80156106075780601f106105dc57610100808354040283529160200191610607565b820191906000526020600020905b8154815290600101906020018083116105ea57829003601f168201915b505050505081565b600081600460003373ffffffffffffffffffffffffffffffffffffffff1673ffffffffffffffffffffffffffffffffffffffff16815260200190815260200160002054101561065d57600080fd5b610668338484610672565b6001905092915050565b600073ffffffffffffffffffffffffffffffffffffffff168273ffffffffffffffffffffffffffffffffffffffff16036106ab57600080fd5b80600460008573ffffffffffffffffffffffffffffffffffffffff1673ffffffffffffffffffffffffffffffffffffffff16815260200190815260200160002060008282546106fa9190610aa4565b9250508190555080600460008473ffffffffffffffffffffffffffffffffffffffff1673ffffffffffffffffffffffffffffffffffffffff16815260200190815260200160002060008282546107509190610b38565b925050819055508173ffffffffffffffffffffffffffffffffffffffff168373ffffffffffffffffffffffffffffffffffffffff167fddf252ad1be2c89b69c2b068fc378daa952ba7f163c4a11628f55a4df523b3ef836040516107b491906108df565b60405180910390a3505050565b600080fd5b600073ffffffffffffffffffffffffffffffffffffffff82169050919050565b60006107f1826107c6565b9050919050565b610801816107e6565b811461080c57600080fd5b50565b60008135905061081e816107f8565b92915050565b6000819050919050565b61083781610824565b811461084257600080fd5b50565b6000813590506108548161082e565b92915050565b60008060408385031215610871576108706107c1565b5b600061087f8582860161080f565b925050602061089085828601610845565b9150509250929050565b60008115159050919050565b6108af8161089a565b82525050565b60006020820190506108ca60008301846108a6565b92915050565b6108d981610824565b82525050565b60006020820190506108f460008301846108d0565b92915050565b600080600060608486031215610913576109126107c1565b5b60006109218682870161080f565b93505060206109328682870161080f565b925050604061094386828701610845565b9150509250925092565b600060208284031215610963576109626107c1565b5b60006109718482850161080f565b91505092915050565b60008060408385031215610991576109906107c1565b5b600061099f8582860161080f565b92505060206109b08582860161080f565b9150509250929050565b600081519050919050565b600082825260208201905092915050565b60005b838110156109f45780820151818401526020810190506109d9565b83811115610a03576000848401525b50505050565b6000601f19601f8301169050919050565b6000610a25826109ba565b610a2f81856109c5565b9350610a3f8185602086016109d6565b610a4881610a09565b840191505092915050565b60006020820190508181036000830152610a6d8184610a1a565b905092915050565b7f4e487b7100000000000000000000000000000000000000000000000000000000600052601160045260246000fd5b6000610aaf82610824565b9150610aba83610824565b925082821015610acd57610acc610a75565b5b828203905092915050565b7f4e487b7100000000000000000000000000000000000000000000000000000000600052602260045260246000fd5b60006002820490506001821680610b1f57607f821691505b602082108103610b3257610b31610ad8565b5b50919050565b6000610b4382610824565b9150610b4e83610824565b9250827fffffffffffffffffffffffffffffffffffffffffffffffffffffffffffffffff03821115610b8357610b82610a75565b5b82820190509291505056fea264697066735822122054558ad39d6daaaaf2ca0bababb2b68a9841cf5761688340028b1afe717a37bc64736f6c634300080d0033",
  "immutableReferences": {},
  "source": "// SPDX-License-Identifier: MIT\r\npragma solidity >=0.4.21 <8.10.0;\r\n\r\ncontract tokens{\r\n    string public owner = \"Rich Token\";\r\n    string public symbol = \"RICH\";\r\n    uint256 public decimals = 18;\r\n    uint256 public totalSupply=1000000*(10**decimals);\r\n    mapping(address => uint256) public balances;\r\n    mapping(address => mapping(address => uint256)) public allowances;\r\n    constructor(){\r\n        balances[msg.sender] = totalSupply;\r\n    }\r\n\r\n    //Events\r\n    event Transfer(address indexed from, address indexed to, uint256 value);\r\n    event Approval(address indexed owner, address indexed spender, uint256 value);\r\n\r\n    function transfer(address to, uint256 value) public returns(bool success){\r\n        require(balances[msg.sender] >= value);\r\n        _transfer(msg.sender, to, value);\r\n        return true;\r\n    }\r\n\r\n    function _transfer(address from, address to, uint value) internal {\r\n        require(to!=address(0));\r\n        balances[from] -=value;\r\n        balances[to] += value;\r\n        emit Transfer(from,to,value);\r\n    }\r\n    //Approve Tokens\r\n    function approve(address spender, uint value) public returns(bool success) {\r\n        require(spender!=address(0));\r\n        allowances[msg.sender][spender] = value;\r\n        emit Approval(msg.sender,spender,value);\r\n        return true;\r\n    }\r\n\r\n    //Transfer From\r\n    function transferFrom(address from, address to, uint value) public returns(bool success){\r\n        require(value<=balances[from]);\r\n        require(value<=allowances[from][msg.sender]);\r\n        allowances[from][msg.sender] -= value;\r\n        _transfer(from,to,value);\r\n        return true;\r\n    }\r\n\r\n}\r\n\r\n",
  "sourcePath": "D:\\anish CS works\\Projects\\Capstone-1\\client\\src\\contracts\\Sample_token.sol",
  "compiler": {
    "name": "solc",
    "version": "0.8.13+commit.abaa5c0e.Emscripten.clang"
  },
  "schemaVersion": "3.4.7",
  "updatedAt": "2022-05-04T01:15:12.924Z",
  "devdoc": {
    "kind": "dev",
    "methods": {},
    "version": 1
  },
  "userdoc": {
    "kind": "user",
    "methods": {},
    "version": 1
  }
}